{
  "_format": "hh-sol-artifact-1",
  "contractName": "EventBritenft",
  "sourceName": "contracts/EventBritenft.sol",
  "abi": [
    {
      "inputs": [],
      "stateMutability": "nonpayable",
      "type": "constructor"
    },
    {
      "inputs": [
        {
          "internalType": "address",
          "name": "sender",
          "type": "address"
        },
        {
          "internalType": "uint256",
          "name": "tokenId",
          "type": "uint256"
        },
        {
          "internalType": "address",
          "name": "owner",
          "type": "address"
        }
      ],
      "name": "ERC721IncorrectOwner",
      "type": "error"
    },
    {
      "inputs": [
        {
          "internalType": "address",
          "name": "operator",
          "type": "address"
        },
        {
          "internalType": "uint256",
          "name": "tokenId",
          "type": "uint256"
        }
      ],
      "name": "ERC721InsufficientApproval",
      "type": "error"
    },
    {
      "inputs": [
        {
          "internalType": "address",
          "name": "approver",
          "type": "address"
        }
      ],
      "name": "ERC721InvalidApprover",
      "type": "error"
    },
    {
      "inputs": [
        {
          "internalType": "address",
          "name": "operator",
          "type": "address"
        }
      ],
      "name": "ERC721InvalidOperator",
      "type": "error"
    },
    {
      "inputs": [
        {
          "internalType": "address",
          "name": "owner",
          "type": "address"
        }
      ],
      "name": "ERC721InvalidOwner",
      "type": "error"
    },
    {
      "inputs": [
        {
          "internalType": "address",
          "name": "receiver",
          "type": "address"
        }
      ],
      "name": "ERC721InvalidReceiver",
      "type": "error"
    },
    {
      "inputs": [
        {
          "internalType": "address",
          "name": "sender",
          "type": "address"
        }
      ],
      "name": "ERC721InvalidSender",
      "type": "error"
    },
    {
      "inputs": [
        {
          "internalType": "uint256",
          "name": "tokenId",
          "type": "uint256"
        }
      ],
      "name": "ERC721NonexistentToken",
      "type": "error"
    },
    {
      "anonymous": false,
      "inputs": [
        {
          "indexed": true,
          "internalType": "address",
          "name": "owner",
          "type": "address"
        },
        {
          "indexed": true,
          "internalType": "address",
          "name": "approved",
          "type": "address"
        },
        {
          "indexed": true,
          "internalType": "uint256",
          "name": "tokenId",
          "type": "uint256"
        }
      ],
      "name": "Approval",
      "type": "event"
    },
    {
      "anonymous": false,
      "inputs": [
        {
          "indexed": true,
          "internalType": "address",
          "name": "owner",
          "type": "address"
        },
        {
          "indexed": true,
          "internalType": "address",
          "name": "operator",
          "type": "address"
        },
        {
          "indexed": false,
          "internalType": "bool",
          "name": "approved",
          "type": "bool"
        }
      ],
      "name": "ApprovalForAll",
      "type": "event"
    },
    {
      "anonymous": false,
      "inputs": [
        {
          "indexed": false,
          "internalType": "uint256",
          "name": "_fromTokenId",
          "type": "uint256"
        },
        {
          "indexed": false,
          "internalType": "uint256",
          "name": "_toTokenId",
          "type": "uint256"
        }
      ],
      "name": "BatchMetadataUpdate",
      "type": "event"
    },
    {
      "anonymous": false,
      "inputs": [
        {
          "indexed": false,
          "internalType": "uint256",
          "name": "_tokenId",
          "type": "uint256"
        }
      ],
      "name": "MetadataUpdate",
      "type": "event"
    },
    {
      "anonymous": false,
      "inputs": [
        {
          "indexed": true,
          "internalType": "address",
          "name": "from",
          "type": "address"
        },
        {
          "indexed": true,
          "internalType": "address",
          "name": "to",
          "type": "address"
        },
        {
          "indexed": true,
          "internalType": "uint256",
          "name": "tokenId",
          "type": "uint256"
        }
      ],
      "name": "Transfer",
      "type": "event"
    },
    {
      "inputs": [
        {
          "internalType": "address",
          "name": "to",
          "type": "address"
        },
        {
          "internalType": "uint256",
          "name": "tokenId",
          "type": "uint256"
        }
      ],
      "name": "approve",
      "outputs": [],
      "stateMutability": "nonpayable",
      "type": "function"
    },
    {
      "inputs": [
        {
          "internalType": "address",
          "name": "owner",
          "type": "address"
        }
      ],
      "name": "balanceOf",
      "outputs": [
        {
          "internalType": "uint256",
          "name": "",
          "type": "uint256"
        }
      ],
      "stateMutability": "view",
      "type": "function"
    },
    {
      "inputs": [
        {
          "internalType": "uint256",
          "name": "tokenId",
          "type": "uint256"
        }
      ],
      "name": "generateCharacter",
      "outputs": [
        {
          "internalType": "string",
          "name": "",
          "type": "string"
        }
      ],
      "stateMutability": "view",
      "type": "function"
    },
    {
      "inputs": [
        {
          "internalType": "uint256",
          "name": "tokenId",
          "type": "uint256"
        }
      ],
      "name": "getApproved",
      "outputs": [
        {
          "internalType": "address",
          "name": "",
          "type": "address"
        }
      ],
      "stateMutability": "view",
      "type": "function"
    },
    {
      "inputs": [
        {
          "internalType": "uint256",
          "name": "tokenId",
          "type": "uint256"
        }
      ],
      "name": "getLevels",
      "outputs": [
        {
          "internalType": "string",
          "name": "",
          "type": "string"
        }
      ],
      "stateMutability": "view",
      "type": "function"
    },
    {
      "inputs": [
        {
          "internalType": "uint256",
          "name": "tokenId",
          "type": "uint256"
        }
      ],
      "name": "getTokenURI",
      "outputs": [
        {
          "internalType": "string",
          "name": "",
          "type": "string"
        }
      ],
      "stateMutability": "view",
      "type": "function"
    },
    {
      "inputs": [
        {
          "internalType": "address",
          "name": "owner",
          "type": "address"
        },
        {
          "internalType": "address",
          "name": "operator",
          "type": "address"
        }
      ],
      "name": "isApprovedForAll",
      "outputs": [
        {
          "internalType": "bool",
          "name": "",
          "type": "bool"
        }
      ],
      "stateMutability": "view",
      "type": "function"
    },
    {
      "inputs": [],
      "name": "mint",
      "outputs": [],
      "stateMutability": "nonpayable",
      "type": "function"
    },
    {
      "inputs": [],
      "name": "name",
      "outputs": [
        {
          "internalType": "string",
          "name": "",
          "type": "string"
        }
      ],
      "stateMutability": "view",
      "type": "function"
    },
    {
      "inputs": [
        {
          "internalType": "uint256",
          "name": "tokenId",
          "type": "uint256"
        }
      ],
      "name": "ownerOf",
      "outputs": [
        {
          "internalType": "address",
          "name": "",
          "type": "address"
        }
      ],
      "stateMutability": "view",
      "type": "function"
    },
    {
      "inputs": [
        {
          "internalType": "address",
          "name": "from",
          "type": "address"
        },
        {
          "internalType": "address",
          "name": "to",
          "type": "address"
        },
        {
          "internalType": "uint256",
          "name": "tokenId",
          "type": "uint256"
        }
      ],
      "name": "safeTransferFrom",
      "outputs": [],
      "stateMutability": "nonpayable",
      "type": "function"
    },
    {
      "inputs": [
        {
          "internalType": "address",
          "name": "from",
          "type": "address"
        },
        {
          "internalType": "address",
          "name": "to",
          "type": "address"
        },
        {
          "internalType": "uint256",
          "name": "tokenId",
          "type": "uint256"
        },
        {
          "internalType": "bytes",
          "name": "data",
          "type": "bytes"
        }
      ],
      "name": "safeTransferFrom",
      "outputs": [],
      "stateMutability": "nonpayable",
      "type": "function"
    },
    {
      "inputs": [
        {
          "internalType": "address",
          "name": "operator",
          "type": "address"
        },
        {
          "internalType": "bool",
          "name": "approved",
          "type": "bool"
        }
      ],
      "name": "setApprovalForAll",
      "outputs": [],
      "stateMutability": "nonpayable",
      "type": "function"
    },
    {
      "inputs": [
        {
          "internalType": "bytes4",
          "name": "interfaceId",
          "type": "bytes4"
        }
      ],
      "name": "supportsInterface",
      "outputs": [
        {
          "internalType": "bool",
          "name": "",
          "type": "bool"
        }
      ],
      "stateMutability": "view",
      "type": "function"
    },
    {
      "inputs": [],
      "name": "symbol",
      "outputs": [
        {
          "internalType": "string",
          "name": "",
          "type": "string"
        }
      ],
      "stateMutability": "view",
      "type": "function"
    },
    {
      "inputs": [
        {
          "internalType": "uint256",
          "name": "",
          "type": "uint256"
        }
      ],
      "name": "tokenIdToLevels",
      "outputs": [
        {
          "internalType": "uint256",
          "name": "",
          "type": "uint256"
        }
      ],
      "stateMutability": "view",
      "type": "function"
    },
    {
      "inputs": [
        {
          "internalType": "uint256",
          "name": "tokenId",
          "type": "uint256"
        }
      ],
      "name": "tokenURI",
      "outputs": [
        {
          "internalType": "string",
          "name": "",
          "type": "string"
        }
      ],
      "stateMutability": "view",
      "type": "function"
    },
    {
      "inputs": [
        {
          "internalType": "uint256",
          "name": "tokenId",
          "type": "uint256"
        }
      ],
      "name": "train",
      "outputs": [],
      "stateMutability": "nonpayable",
      "type": "function"
    },
    {
      "inputs": [
        {
          "internalType": "address",
          "name": "from",
          "type": "address"
        },
        {
          "internalType": "address",
          "name": "to",
          "type": "address"
        },
        {
          "internalType": "uint256",
          "name": "tokenId",
          "type": "uint256"
        }
      ],
      "name": "transferFrom",
      "outputs": [],
      "stateMutability": "nonpayable",
      "type": "function"
    }
  ],
  "bytecode": "0x60806040523480156200001157600080fd5b506040518060400160405280600a81526020017f4576656e744272697465000000000000000000000000000000000000000000008152506040518060400160405280600381526020017f425254000000000000000000000000000000000000000000000000000000000081525081600090816200008f91906200032c565b508060019081620000a191906200032c565b505050600060078190555062000413565b600081519050919050565b7f4e487b7100000000000000000000000000000000000000000000000000000000600052604160045260246000fd5b7f4e487b7100000000000000000000000000000000000000000000000000000000600052602260045260246000fd5b600060028204905060018216806200013457607f821691505b6020821081036200014a5762000149620000ec565b5b50919050565b60008190508160005260206000209050919050565b60006020601f8301049050919050565b600082821b905092915050565b600060088302620001b47fffffffffffffffffffffffffffffffffffffffffffffffffffffffffffffffff8262000175565b620001c0868362000175565b95508019841693508086168417925050509392505050565b6000819050919050565b6000819050919050565b60006200020d620002076200020184620001d8565b620001e2565b620001d8565b9050919050565b6000819050919050565b6200022983620001ec565b62000241620002388262000214565b84845462000182565b825550505050565b600090565b6200025862000249565b620002658184846200021e565b505050565b5b818110156200028d57620002816000826200024e565b6001810190506200026b565b5050565b601f821115620002dc57620002a68162000150565b620002b18462000165565b81016020851015620002c1578190505b620002d9620002d08562000165565b8301826200026a565b50505b505050565b600082821c905092915050565b60006200030160001984600802620002e1565b1980831691505092915050565b60006200031c8383620002ee565b9150826002028217905092915050565b6200033782620000b2565b67ffffffffffffffff811115620003535762000352620000bd565b5b6200035f82546200011b565b6200036c82828562000291565b600060209050601f831160018114620003a457600084156200038f578287015190505b6200039b85826200030e565b8655506200040b565b601f198416620003b48662000150565b60005b82811015620003de57848901518255600182019150602085019450602081019050620003b7565b86831015620003fe5784890151620003fa601f891682620002ee565b8355505b6001600288020188555050505b505050505050565b6130b280620004236000396000f3fe608060405234801561001057600080fd5b50600436106101215760003560e01c806342842e0e116100ad578063b88d4fde11610071578063b88d4fde14610318578063c6a4342f14610334578063c87b56dd14610364578063e985e9c514610394578063f43785f9146103c457610121565b806342842e0e146102625780636352211e1461027e57806370a08231146102ae57806395d89b41146102de578063a22cb465146102fc57610121565b80630daefed5116100f45780630daefed5146101c05780631249c58b146101f057806323b872dd146101fa578063368004ed146102165780633bb3a24d1461023257610121565b806301ffc9a71461012657806306fdde0314610156578063081812fc14610174578063095ea7b3146101a4575b600080fd5b610140600480360381019061013b9190611ca2565b6103f4565b60405161014d9190611cea565b60405180910390f35b61015e610455565b60405161016b9190611d95565b60405180910390f35b61018e60048036038101906101899190611ded565b6104e7565b60405161019b9190611e5b565b60405180910390f35b6101be60048036038101906101b99190611ea2565b610503565b005b6101da60048036038101906101d59190611ded565b610519565b6040516101e79190611d95565b60405180910390f35b6101f861057c565b005b610214600480360381019061020f9190611ee2565b6105d5565b005b610230600480360381019061022b9190611ded565b6106d7565b005b61024c60048036038101906102479190611ded565b61079f565b6040516102599190611d95565b60405180910390f35b61027c60048036038101906102779190611ee2565b610807565b005b61029860048036038101906102939190611ded565b610827565b6040516102a59190611e5b565b60405180910390f35b6102c860048036038101906102c39190611f35565b610839565b6040516102d59190611f71565b60405180910390f35b6102e66108f3565b6040516102f39190611d95565b60405180910390f35b61031660048036038101906103119190611fb8565b610985565b005b610332600480360381019061032d919061212d565b61099b565b005b61034e60048036038101906103499190611ded565b6109b8565b60405161035b9190611f71565b60405180910390f35b61037e60048036038101906103799190611ded565b6109d0565b60405161038b9190611d95565b60405180910390f35b6103ae60048036038101906103a991906121b0565b610ae3565b6040516103bb9190611cea565b60405180910390f35b6103de60048036038101906103d99190611ded565b610b77565b6040516103eb9190611d95565b60405180910390f35b6000634906490660e01b7bffffffffffffffffffffffffffffffffffffffffffffffffffffffff1916827bffffffffffffffffffffffffffffffffffffffffffffffffffffffff1916148061044e575061044d82610ba2565b5b9050919050565b6060600080546104649061221f565b80601f01602080910402602001604051908101604052809291908181526020018280546104909061221f565b80156104dd5780601f106104b2576101008083540402835291602001916104dd565b820191906000526020600020905b8154815290600101906020018083116104c057829003601f168201915b5050505050905090565b60006104f282610c84565b506104fc82610d0c565b9050919050565b6105158282610510610d49565b610d51565b5050565b60606007549150600061052b83610b77565b60405160200161053b91906126b4565b604051602081830303815290604052905061055581610d63565b6040516020016105659190612785565b604051602081830303815290604052915050919050565b60016007600082825461058f91906127d6565b92505081905550600060075490506105a73382610ed5565b600060086000838152602001908152602001600020819055506105d2816105cd8361079f565b610ef3565b50565b600073ffffffffffffffffffffffffffffffffffffffff168273ffffffffffffffffffffffffffffffffffffffff16036106475760006040517f64a0ae9200000000000000000000000000000000000000000000000000000000815260040161063e9190611e5b565b60405180910390fd5b600061065b8383610656610d49565b610f4f565b90508373ffffffffffffffffffffffffffffffffffffffff168173ffffffffffffffffffffffffffffffffffffffff16146106d1578382826040517f64283d7b0000000000000000000000000000000000000000000000000000000081526004016106c89392919061280a565b60405180910390fd5b50505050565b3373ffffffffffffffffffffffffffffffffffffffff166106f782610827565b73ffffffffffffffffffffffffffffffffffffffff161461074d576040517f08c379a0000000000000000000000000000000000000000000000000000000008152600401610744906128b3565b60405180910390fd5b60006008600083815260200190815260200160002054905060018161077291906127d6565b600860008481526020019081526020016000208190555061079b826107968461079f565b610ef3565b5050565b606060006107ac83611169565b6107b584610519565b6040516020016107c6929190612b0d565b60405160208183030381529060405290506107e081610d63565b6040516020016107f09190612bca565b604051602081830303815290604052915050919050565b6108228383836040518060200160405280600081525061099b565b505050565b600061083282610c84565b9050919050565b60008073ffffffffffffffffffffffffffffffffffffffff168273ffffffffffffffffffffffffffffffffffffffff16036108ac5760006040517f89c62b640000000000000000000000000000000000000000000000000000000081526004016108a39190611e5b565b60405180910390fd5b600360008373ffffffffffffffffffffffffffffffffffffffff1673ffffffffffffffffffffffffffffffffffffffff168152602001908152602001600020549050919050565b6060600180546109029061221f565b80601f016020809104026020016040519081016040528092919081815260200182805461092e9061221f565b801561097b5780601f106109505761010080835404028352916020019161097b565b820191906000526020600020905b81548152906001019060200180831161095e57829003601f168201915b5050505050905090565b610997610990610d49565b8383611237565b5050565b6109a68484846105d5565b6109b2848484846113a6565b50505050565b60086020528060005260406000206000915090505481565b60606109db82610c84565b5060006006600084815260200190815260200160002080546109fc9061221f565b80601f0160208091040260200160405190810160405280929190818152602001828054610a289061221f565b8015610a755780601f10610a4a57610100808354040283529160200191610a75565b820191906000526020600020905b815481529060010190602001808311610a5857829003601f168201915b505050505090506000610a8661155d565b90506000815103610a9b578192505050610ade565b600082511115610ad0578082604051602001610ab8929190612bec565b60405160208183030381529060405292505050610ade565b610ad984611574565b925050505b919050565b6000600560008473ffffffffffffffffffffffffffffffffffffffff1673ffffffffffffffffffffffffffffffffffffffff16815260200190815260200160002060008373ffffffffffffffffffffffffffffffffffffffff1673ffffffffffffffffffffffffffffffffffffffff16815260200190815260200160002060009054906101000a900460ff16905092915050565b6060600060086000848152602001908152602001600020549050610b9a81611169565b915050919050565b60007f80ac58cd000000000000000000000000000000000000000000000000000000007bffffffffffffffffffffffffffffffffffffffffffffffffffffffff1916827bffffffffffffffffffffffffffffffffffffffffffffffffffffffff19161480610c6d57507f5b5e139f000000000000000000000000000000000000000000000000000000007bffffffffffffffffffffffffffffffffffffffffffffffffffffffff1916827bffffffffffffffffffffffffffffffffffffffffffffffffffffffff1916145b80610c7d5750610c7c826115dd565b5b9050919050565b600080610c9083611647565b9050600073ffffffffffffffffffffffffffffffffffffffff168173ffffffffffffffffffffffffffffffffffffffff1603610d0357826040517f7e273289000000000000000000000000000000000000000000000000000000008152600401610cfa9190611f71565b60405180910390fd5b80915050919050565b60006004600083815260200190815260200160002060009054906101000a900473ffffffffffffffffffffffffffffffffffffffff169050919050565b600033905090565b610d5e8383836001611684565b505050565b60606000825103610d8557604051806020016040528060008152509050610ed0565b600060405180606001604052806040815260200161303d6040913990506000600360028551610db491906127d6565b610dbe9190612c3f565b6004610dca9190612c70565b67ffffffffffffffff811115610de357610de2612002565b5b6040519080825280601f01601f191660200182016040528015610e155781602001600182028036833780820191505090505b50905060018201602082018586518701602081018051600082525b82841015610e8b576003840193508351603f8160121c168701518653600186019550603f81600c1c168701518653600186019550603f8160061c168701518653600186019550603f8116870151865360018601955050610e30565b80825260038a510660018114610ea85760028114610ebb57610ec3565b603d6001870353603d6002870353610ec3565b603d60018703535b5050505050505080925050505b919050565b610eef828260405180602001604052806000815250611849565b5050565b80600660008481526020019081526020016000209081610f139190612e5e565b507ff8e1a15aba9398e019f0b49df1a4fde98ee17ae345cb5f6b5e2c27f5033e8ce782604051610f439190611f71565b60405180910390a15050565b600080610f5b84611647565b9050600073ffffffffffffffffffffffffffffffffffffffff168373ffffffffffffffffffffffffffffffffffffffff1614610f9d57610f9c818486611865565b5b600073ffffffffffffffffffffffffffffffffffffffff168173ffffffffffffffffffffffffffffffffffffffff161461102e57610fdf600085600080611684565b6001600360008373ffffffffffffffffffffffffffffffffffffffff1673ffffffffffffffffffffffffffffffffffffffff168152602001908152602001600020600082825403925050819055505b600073ffffffffffffffffffffffffffffffffffffffff168573ffffffffffffffffffffffffffffffffffffffff16146110b1576001600360008773ffffffffffffffffffffffffffffffffffffffff1673ffffffffffffffffffffffffffffffffffffffff168152602001908152602001600020600082825401925050819055505b846002600086815260200190815260200160002060006101000a81548173ffffffffffffffffffffffffffffffffffffffff021916908373ffffffffffffffffffffffffffffffffffffffff160217905550838573ffffffffffffffffffffffffffffffffffffffff168273ffffffffffffffffffffffffffffffffffffffff167fddf252ad1be2c89b69c2b068fc378daa952ba7f163c4a11628f55a4df523b3ef60405160405180910390a4809150509392505050565b60606000600161117884611929565b01905060008167ffffffffffffffff81111561119757611196612002565b5b6040519080825280601f01601f1916602001820160405280156111c95781602001600182028036833780820191505090505b509050600082602001820190505b60011561122c578080600190039150507f3031323334353637383961626364656600000000000000000000000000000000600a86061a8153600a85816112205761121f612c10565b5b049450600085036111d7575b819350505050919050565b600073ffffffffffffffffffffffffffffffffffffffff168273ffffffffffffffffffffffffffffffffffffffff16036112a857816040517f5b08ba1800000000000000000000000000000000000000000000000000000000815260040161129f9190611e5b565b60405180910390fd5b80600560008573ffffffffffffffffffffffffffffffffffffffff1673ffffffffffffffffffffffffffffffffffffffff16815260200190815260200160002060008473ffffffffffffffffffffffffffffffffffffffff1673ffffffffffffffffffffffffffffffffffffffff16815260200190815260200160002060006101000a81548160ff0219169083151502179055508173ffffffffffffffffffffffffffffffffffffffff168373ffffffffffffffffffffffffffffffffffffffff167f17307eab39ab6107e8899845ad3d59bd9653f200f220920489ca2b5937696c31836040516113999190611cea565b60405180910390a3505050565b60008373ffffffffffffffffffffffffffffffffffffffff163b1115611557578273ffffffffffffffffffffffffffffffffffffffff1663150b7a026113ea610d49565b8685856040518563ffffffff1660e01b815260040161140c9493929190612f85565b6020604051808303816000875af192505050801561144857506040513d601f19601f820116820180604052508101906114459190612fe6565b60015b6114cc573d8060008114611478576040519150601f19603f3d011682016040523d82523d6000602084013e61147d565b606091505b5060008151036114c457836040517f64a0ae920000000000000000000000000000000000000000000000000000000081526004016114bb9190611e5b565b60405180910390fd5b805181602001fd5b63150b7a0260e01b7bffffffffffffffffffffffffffffffffffffffffffffffffffffffff1916817bffffffffffffffffffffffffffffffffffffffffffffffffffffffff19161461155557836040517f64a0ae9200000000000000000000000000000000000000000000000000000000815260040161154c9190611e5b565b60405180910390fd5b505b50505050565b606060405180602001604052806000815250905090565b606061157f82610c84565b50600061158a61155d565b905060008151116115aa57604051806020016040528060008152506115d5565b806115b484611169565b6040516020016115c5929190612bec565b6040516020818303038152906040525b915050919050565b60007f01ffc9a7000000000000000000000000000000000000000000000000000000007bffffffffffffffffffffffffffffffffffffffffffffffffffffffff1916827bffffffffffffffffffffffffffffffffffffffffffffffffffffffff1916149050919050565b60006002600083815260200190815260200160002060009054906101000a900473ffffffffffffffffffffffffffffffffffffffff169050919050565b80806116bd5750600073ffffffffffffffffffffffffffffffffffffffff168273ffffffffffffffffffffffffffffffffffffffff1614155b156117f15760006116cd84610c84565b9050600073ffffffffffffffffffffffffffffffffffffffff168373ffffffffffffffffffffffffffffffffffffffff161415801561173857508273ffffffffffffffffffffffffffffffffffffffff168173ffffffffffffffffffffffffffffffffffffffff1614155b801561174b57506117498184610ae3565b155b1561178d57826040517fa9fbf51f0000000000000000000000000000000000000000000000000000000081526004016117849190611e5b565b60405180910390fd5b81156117ef57838573ffffffffffffffffffffffffffffffffffffffff168273ffffffffffffffffffffffffffffffffffffffff167f8c5be1e5ebec7d5bd14f71427d1e84f3dd0314c0f7b2291e5b200ac8c7c3b92560405160405180910390a45b505b836004600085815260200190815260200160002060006101000a81548173ffffffffffffffffffffffffffffffffffffffff021916908373ffffffffffffffffffffffffffffffffffffffff16021790555050505050565b6118538383611a7c565b61186060008484846113a6565b505050565b611870838383611b75565b61192457600073ffffffffffffffffffffffffffffffffffffffff168373ffffffffffffffffffffffffffffffffffffffff16036118e557806040517f7e2732890000000000000000000000000000000000000000000000000000000081526004016118dc9190611f71565b60405180910390fd5b81816040517f177e802f00000000000000000000000000000000000000000000000000000000815260040161191b929190613013565b60405180910390fd5b505050565b600080600090507a184f03e93ff9f4daa797ed6e38ed64bf6a1f0100000000000000008310611987577a184f03e93ff9f4daa797ed6e38ed64bf6a1f010000000000000000838161197d5761197c612c10565b5b0492506040810190505b6d04ee2d6d415b85acef810000000083106119c4576d04ee2d6d415b85acef810000000083816119ba576119b9612c10565b5b0492506020810190505b662386f26fc1000083106119f357662386f26fc1000083816119e9576119e8612c10565b5b0492506010810190505b6305f5e1008310611a1c576305f5e1008381611a1257611a11612c10565b5b0492506008810190505b6127108310611a41576127108381611a3757611a36612c10565b5b0492506004810190505b60648310611a645760648381611a5a57611a59612c10565b5b0492506002810190505b600a8310611a73576001810190505b80915050919050565b600073ffffffffffffffffffffffffffffffffffffffff168273ffffffffffffffffffffffffffffffffffffffff1603611aee5760006040517f64a0ae92000000000000000000000000000000000000000000000000000000008152600401611ae59190611e5b565b60405180910390fd5b6000611afc83836000610f4f565b9050600073ffffffffffffffffffffffffffffffffffffffff168173ffffffffffffffffffffffffffffffffffffffff1614611b705760006040517f73c6ac6e000000000000000000000000000000000000000000000000000000008152600401611b679190611e5b565b60405180910390fd5b505050565b60008073ffffffffffffffffffffffffffffffffffffffff168373ffffffffffffffffffffffffffffffffffffffff1614158015611c2d57508273ffffffffffffffffffffffffffffffffffffffff168473ffffffffffffffffffffffffffffffffffffffff161480611bee5750611bed8484610ae3565b5b80611c2c57508273ffffffffffffffffffffffffffffffffffffffff16611c1483610d0c565b73ffffffffffffffffffffffffffffffffffffffff16145b5b90509392505050565b6000604051905090565b600080fd5b600080fd5b60007fffffffff0000000000000000000000000000000000000000000000000000000082169050919050565b611c7f81611c4a565b8114611c8a57600080fd5b50565b600081359050611c9c81611c76565b92915050565b600060208284031215611cb857611cb7611c40565b5b6000611cc684828501611c8d565b91505092915050565b60008115159050919050565b611ce481611ccf565b82525050565b6000602082019050611cff6000830184611cdb565b92915050565b600081519050919050565b600082825260208201905092915050565b60005b83811015611d3f578082015181840152602081019050611d24565b60008484015250505050565b6000601f19601f8301169050919050565b6000611d6782611d05565b611d718185611d10565b9350611d81818560208601611d21565b611d8a81611d4b565b840191505092915050565b60006020820190508181036000830152611daf8184611d5c565b905092915050565b6000819050919050565b611dca81611db7565b8114611dd557600080fd5b50565b600081359050611de781611dc1565b92915050565b600060208284031215611e0357611e02611c40565b5b6000611e1184828501611dd8565b91505092915050565b600073ffffffffffffffffffffffffffffffffffffffff82169050919050565b6000611e4582611e1a565b9050919050565b611e5581611e3a565b82525050565b6000602082019050611e706000830184611e4c565b92915050565b611e7f81611e3a565b8114611e8a57600080fd5b50565b600081359050611e9c81611e76565b92915050565b60008060408385031215611eb957611eb8611c40565b5b6000611ec785828601611e8d565b9250506020611ed885828601611dd8565b9150509250929050565b600080600060608486031215611efb57611efa611c40565b5b6000611f0986828701611e8d565b9350506020611f1a86828701611e8d565b9250506040611f2b86828701611dd8565b9150509250925092565b600060208284031215611f4b57611f4a611c40565b5b6000611f5984828501611e8d565b91505092915050565b611f6b81611db7565b82525050565b6000602082019050611f866000830184611f62565b92915050565b611f9581611ccf565b8114611fa057600080fd5b50565b600081359050611fb281611f8c565b92915050565b60008060408385031215611fcf57611fce611c40565b5b6000611fdd85828601611e8d565b9250506020611fee85828601611fa3565b9150509250929050565b600080fd5b600080fd5b7f4e487b7100000000000000000000000000000000000000000000000000000000600052604160045260246000fd5b61203a82611d4b565b810181811067ffffffffffffffff8211171561205957612058612002565b5b80604052505050565b600061206c611c36565b90506120788282612031565b919050565b600067ffffffffffffffff82111561209857612097612002565b5b6120a182611d4b565b9050602081019050919050565b82818337600083830152505050565b60006120d06120cb8461207d565b612062565b9050828152602081018484840111156120ec576120eb611ffd565b5b6120f78482856120ae565b509392505050565b600082601f83011261211457612113611ff8565b5b81356121248482602086016120bd565b91505092915050565b6000806000806080858703121561214757612146611c40565b5b600061215587828801611e8d565b945050602061216687828801611e8d565b935050604061217787828801611dd8565b925050606085013567ffffffffffffffff81111561219857612197611c45565b5b6121a4878288016120ff565b91505092959194509250565b600080604083850312156121c7576121c6611c40565b5b60006121d585828601611e8d565b92505060206121e685828601611e8d565b9150509250929050565b7f4e487b7100000000000000000000000000000000000000000000000000000000600052602260045260246000fd5b6000600282049050600182168061223757607f821691505b60208210810361224a576122496121f0565b5b50919050565b600081905092915050565b7f3c73766720786d6c6e733d22687474703a2f2f7777772e77332e6f72672f323060008201527f30302f73766722207072657365727665417370656374526174696f3d22784d6960208201527f6e594d696e206d656574222076696577426f783d22302030203335302033353060408201527f223e000000000000000000000000000000000000000000000000000000000000606082015250565b6000612303606283612250565b915061230e8261225b565b606282019050919050565b7f3c7374796c653e2e62617365207b2066696c6c3a2077686974653b20666f6e7460008201527f2d66616d696c793a2073657269663b20666f6e742d73697a653a20313470783b60208201527f207d3c2f7374796c653e00000000000000000000000000000000000000000000604082015250565b600061239b604a83612250565b91506123a682612319565b604a82019050919050565b7f3c726563742077696474683d223130302522206865696768743d22313030252260008201527f2066696c6c3d22626c61636b22202f3e00000000000000000000000000000000602082015250565b600061240d603083612250565b9150612418826123b1565b603082019050919050565b7f3c7465787420783d223530252220793d223430252220636c6173733d2262617360008201527f652220646f6d696e616e742d626173656c696e653d226d6964646c652220746560208201527f78742d616e63686f723d226d6964646c65223e00000000000000000000000000604082015250565b60006124a5605383612250565b91506124b082612423565b605382019050919050565b7f4576656e74427269746520546167730000000000000000000000000000000000600082015250565b60006124f1600f83612250565b91506124fc826124bb565b600f82019050919050565b7f3c2f746578743e00000000000000000000000000000000000000000000000000600082015250565b600061253d600783612250565b915061254882612507565b600782019050919050565b7f3c7465787420783d223530252220793d223530252220636c6173733d2262617360008201527f652220646f6d696e616e742d626173656c696e653d226d6964646c652220746560208201527f78742d616e63686f723d226d6964646c65223e00000000000000000000000000604082015250565b60006125d5605383612250565b91506125e082612553565b605382019050919050565b7f4c6576656c733a20000000000000000000000000000000000000000000000000600082015250565b6000612621600883612250565b915061262c826125eb565b600882019050919050565b600061264282611d05565b61264c8185612250565b935061265c818560208601611d21565b80840191505092915050565b7f3c2f7376673e0000000000000000000000000000000000000000000000000000600082015250565b600061269e600683612250565b91506126a982612668565b600682019050919050565b60006126bf826122f6565b91506126ca8261238e565b91506126d582612400565b91506126e082612498565b91506126eb826124e4565b91506126f682612530565b9150612701826125c8565b915061270c82612614565b91506127188284612637565b915061272382612530565b915061272e82612691565b915081905092915050565b7f646174613a696d6167652f7376672b786d6c3b6261736536342c000000000000600082015250565b600061276f601a83612250565b915061277a82612739565b601a82019050919050565b600061279082612762565b915061279c8284612637565b915081905092915050565b7f4e487b7100000000000000000000000000000000000000000000000000000000600052601160045260246000fd5b60006127e182611db7565b91506127ec83611db7565b9250828201905080821115612804576128036127a7565b5b92915050565b600060608201905061281f6000830186611e4c565b61282c6020830185611f62565b6128396040830184611e4c565b949350505050565b7f596f75206d757374206f776e207468697320746f6b656e20746f20747261696e60008201527f2069740000000000000000000000000000000000000000000000000000000000602082015250565b600061289d602383611d10565b91506128a882612841565b604082019050919050565b600060208201905081810360008301526128cc81612890565b9050919050565b7f7b00000000000000000000000000000000000000000000000000000000000000600082015250565b6000612909600183612250565b9150612914826128d3565b600182019050919050565b7f226e616d65223a2022436861696e20426174746c657320230000000000000000600082015250565b6000612955601883612250565b91506129608261291f565b601882019050919050565b7f222c000000000000000000000000000000000000000000000000000000000000600082015250565b60006129a1600283612250565b91506129ac8261296b565b600282019050919050565b7f226465736372697074696f6e223a2022426174746c6573206f6e20636861696e60008201527f222c000000000000000000000000000000000000000000000000000000000000602082015250565b6000612a13602283612250565b9150612a1e826129b7565b602282019050919050565b7f22696d616765223a202200000000000000000000000000000000000000000000600082015250565b6000612a5f600a83612250565b9150612a6a82612a29565b600a82019050919050565b7f2200000000000000000000000000000000000000000000000000000000000000600082015250565b6000612aab600183612250565b9150612ab682612a75565b600182019050919050565b7f7d00000000000000000000000000000000000000000000000000000000000000600082015250565b6000612af7600183612250565b9150612b0282612ac1565b600182019050919050565b6000612b18826128fc565b9150612b2382612948565b9150612b2f8285612637565b9150612b3a82612994565b9150612b4582612a06565b9150612b5082612a52565b9150612b5c8284612637565b9150612b6782612a9e565b9150612b7282612aea565b91508190509392505050565b7f646174613a6170706c69636174696f6e2f6a736f6e3b6261736536342c000000600082015250565b6000612bb4601d83612250565b9150612bbf82612b7e565b601d82019050919050565b6000612bd582612ba7565b9150612be18284612637565b915081905092915050565b6000612bf88285612637565b9150612c048284612637565b91508190509392505050565b7f4e487b7100000000000000000000000000000000000000000000000000000000600052601260045260246000fd5b6000612c4a82611db7565b9150612c5583611db7565b925082612c6557612c64612c10565b5b828204905092915050565b6000612c7b82611db7565b9150612c8683611db7565b9250828202612c9481611db7565b91508282048414831517612cab57612caa6127a7565b5b5092915050565b60008190508160005260206000209050919050565b60006020601f8301049050919050565b600082821b905092915050565b600060088302612d147fffffffffffffffffffffffffffffffffffffffffffffffffffffffffffffffff82612cd7565b612d1e8683612cd7565b95508019841693508086168417925050509392505050565b6000819050919050565b6000612d5b612d56612d5184611db7565b612d36565b611db7565b9050919050565b6000819050919050565b612d7583612d40565b612d89612d8182612d62565b848454612ce4565b825550505050565b600090565b612d9e612d91565b612da9818484612d6c565b505050565b5b81811015612dcd57612dc2600082612d96565b600181019050612daf565b5050565b601f821115612e1257612de381612cb2565b612dec84612cc7565b81016020851015612dfb578190505b612e0f612e0785612cc7565b830182612dae565b50505b505050565b600082821c905092915050565b6000612e3560001984600802612e17565b1980831691505092915050565b6000612e4e8383612e24565b9150826002028217905092915050565b612e6782611d05565b67ffffffffffffffff811115612e8057612e7f612002565b5b612e8a825461221f565b612e95828285612dd1565b600060209050601f831160018114612ec85760008415612eb6578287015190505b612ec08582612e42565b865550612f28565b601f198416612ed686612cb2565b60005b82811015612efe57848901518255600182019150602085019450602081019050612ed9565b86831015612f1b5784890151612f17601f891682612e24565b8355505b6001600288020188555050505b505050505050565b600081519050919050565b600082825260208201905092915050565b6000612f5782612f30565b612f618185612f3b565b9350612f71818560208601611d21565b612f7a81611d4b565b840191505092915050565b6000608082019050612f9a6000830187611e4c565b612fa76020830186611e4c565b612fb46040830185611f62565b8181036060830152612fc68184612f4c565b905095945050505050565b600081519050612fe081611c76565b92915050565b600060208284031215612ffc57612ffb611c40565b5b600061300a84828501612fd1565b91505092915050565b60006040820190506130286000830185611e4c565b6130356020830184611f62565b939250505056fe4142434445464748494a4b4c4d4e4f505152535455565758595a6162636465666768696a6b6c6d6e6f707172737475767778797a303132333435363738392b2fa2646970667358221220042aa673c5c7fed970fc9cc5f3812819d35d762a95cd01ad4ebcdc7e52c787a764736f6c63430008180033",
  "linkReferences": {},
  "deployedLinkReferences": {}
}