{
  "_format": "hh-sol-artifact-1",
  "contractName": "EventBrite",
  "sourceName": "contracts/EventBrite.sol",
  "abi": [
    {
      "inputs": [
        {
          "internalType": "address",
          "name": "_nftContract",
          "type": "address"
        }
      ],
      "stateMutability": "nonpayable",
      "type": "constructor"
    },
    {
      "inputs": [
        {
          "internalType": "string",
          "name": "_name",
          "type": "string"
        },
        {
          "internalType": "string",
          "name": "_description",
          "type": "string"
        },
        {
          "internalType": "uint256",
          "name": "_date",
          "type": "uint256"
        },
        {
          "internalType": "uint256",
          "name": "_maxParticipants",
          "type": "uint256"
        }
      ],
      "name": "createEvent",
      "outputs": [],
      "stateMutability": "nonpayable",
      "type": "function"
    },
    {
      "inputs": [
        {
          "internalType": "uint256",
          "name": "_eventId",
          "type": "uint256"
        }
      ],
      "name": "deactivateEvent",
      "outputs": [],
      "stateMutability": "nonpayable",
      "type": "function"
    },
    {
      "inputs": [],
      "name": "eventCount",
      "outputs": [
        {
          "internalType": "uint256",
          "name": "",
          "type": "uint256"
        }
      ],
      "stateMutability": "view",
      "type": "function"
    },
    {
      "inputs": [
        {
          "internalType": "uint256",
          "name": "",
          "type": "uint256"
        },
        {
          "internalType": "uint256",
          "name": "",
          "type": "uint256"
        }
      ],
      "name": "eventParticipants",
      "outputs": [
        {
          "internalType": "bool",
          "name": "",
          "type": "bool"
        }
      ],
      "stateMutability": "view",
      "type": "function"
    },
    {
      "inputs": [
        {
          "internalType": "uint256",
          "name": "",
          "type": "uint256"
        }
      ],
      "name": "events",
      "outputs": [
        {
          "internalType": "string",
          "name": "name",
          "type": "string"
        },
        {
          "internalType": "string",
          "name": "description",
          "type": "string"
        },
        {
          "internalType": "uint256",
          "name": "date",
          "type": "uint256"
        },
        {
          "internalType": "address",
          "name": "organizer",
          "type": "address"
        },
        {
          "internalType": "uint256",
          "name": "maxParticipants",
          "type": "uint256"
        },
        {
          "internalType": "uint256",
          "name": "participantCount",
          "type": "uint256"
        },
        {
          "internalType": "bool",
          "name": "isActive",
          "type": "bool"
        }
      ],
      "stateMutability": "view",
      "type": "function"
    },
    {
      "inputs": [],
      "name": "nftContract",
      "outputs": [
        {
          "internalType": "contract IERC721",
          "name": "",
          "type": "address"
        }
      ],
      "stateMutability": "view",
      "type": "function"
    },
    {
      "inputs": [
        {
          "internalType": "uint256",
          "name": "_eventId",
          "type": "uint256"
        },
        {
          "internalType": "uint256",
          "name": "_tokenId",
          "type": "uint256"
        }
      ],
      "name": "participateInEvent",
      "outputs": [],
      "stateMutability": "nonpayable",
      "type": "function"
    }
  ],
  "bytecode": "0x60806040523480156200001157600080fd5b5060405162001349380380620013498339818101604052810190620000379190620000e8565b806000806101000a81548173ffffffffffffffffffffffffffffffffffffffff021916908373ffffffffffffffffffffffffffffffffffffffff160217905550506200011a565b600080fd5b600073ffffffffffffffffffffffffffffffffffffffff82169050919050565b6000620000b08262000083565b9050919050565b620000c281620000a3565b8114620000ce57600080fd5b50565b600081519050620000e281620000b7565b92915050565b6000602082840312156200010157620001006200007e565b5b60006200011184828501620000d1565b91505092915050565b61121f806200012a6000396000f3fe608060405234801561001057600080fd5b506004361061007d5760003560e01c806371be2e4a1161005b57806371be2e4a14610104578063957a632e14610122578063bce062b91461013e578063d56d229d1461015a5761007d565b80630b791430146100825780636fea5b94146100b857806370405d82146100e8575b600080fd5b61009c600480360381019061009791906107e0565b610178565b6040516100af9796959493929190610908565b60405180910390f35b6100d260048036038101906100cd9190610985565b6102f7565b6040516100df91906109c5565b60405180910390f35b61010260048036038101906100fd9190610985565b610326565b005b61010c61056e565b60405161011991906109e0565b60405180910390f35b61013c600480360381019061013791906107e0565b610574565b005b61015860048036038101906101539190610b30565b61063e565b005b610162610772565b60405161016f9190610c2e565b60405180910390f35b600160205280600052604060002060009150905080600001805461019b90610c78565b80601f01602080910402602001604051908101604052809291908181526020018280546101c790610c78565b80156102145780601f106101e957610100808354040283529160200191610214565b820191906000526020600020905b8154815290600101906020018083116101f757829003601f168201915b50505050509080600101805461022990610c78565b80601f016020809104026020016040519081016040528092919081815260200182805461025590610c78565b80156102a25780601f10610277576101008083540402835291602001916102a2565b820191906000526020600020905b81548152906001019060200180831161028557829003601f168201915b5050505050908060020154908060030160009054906101000a900473ffffffffffffffffffffffffffffffffffffffff16908060040154908060050154908060060160009054906101000a900460ff16905087565b60036020528160005260406000206020528060005260406000206000915091509054906101000a900460ff1681565b803373ffffffffffffffffffffffffffffffffffffffff1660008054906101000a900473ffffffffffffffffffffffffffffffffffffffff1673ffffffffffffffffffffffffffffffffffffffff16636352211e836040518263ffffffff1660e01b815260040161039791906109e0565b602060405180830381865afa1580156103b4573d6000803e3d6000fd5b505050506040513d601f19601f820116820180604052508101906103d89190610cd5565b73ffffffffffffffffffffffffffffffffffffffff161461042e576040517f08c379a000000000000000000000000000000000000000000000000000000000815260040161042590610d4e565b60405180910390fd5b60006001600085815260200190815260200160002090508060060160009054906101000a905050806004015481600501541061049f576040517f08c379a000000000000000000000000000000000000000000000000000000000815260040161049690610dba565b60405180910390fd5b60036000858152602001908152602001600020600084815260200190815260200160002060009054906101000a900460ff1615610511576040517f08c379a000000000000000000000000000000000000000000000000000000000815260040161050890610e4c565b60405180910390fd5b600160036000868152602001908152602001600020600085815260200190815260200160002060006101000a81548160ff02191690831515021790555080600501600081548092919061056390610e9b565b919050555050505050565b60025481565b60006001600083815260200190815260200160002090508060030160009054906101000a900473ffffffffffffffffffffffffffffffffffffffff1673ffffffffffffffffffffffffffffffffffffffff163373ffffffffffffffffffffffffffffffffffffffff161461061d576040517f08c379a000000000000000000000000000000000000000000000000000000000815260040161061490610f55565b60405180910390fd5b60008160060160006101000a81548160ff0219169083151502179055505050565b6002600081548092919061065190610e9b565b91905055506040518060e001604052808581526020018481526020018381526020013373ffffffffffffffffffffffffffffffffffffffff168152602001828152602001600081526020016001151581525060016000600254815260200190815260200160002060008201518160000190816106cd9190611117565b5060208201518160010190816106e39190611117565b506040820151816002015560608201518160030160006101000a81548173ffffffffffffffffffffffffffffffffffffffff021916908373ffffffffffffffffffffffffffffffffffffffff1602179055506080820151816004015560a0820151816005015560c08201518160060160006101000a81548160ff02191690831515021790555090505050505050565b60008054906101000a900473ffffffffffffffffffffffffffffffffffffffff1681565b6000604051905090565b600080fd5b600080fd5b6000819050919050565b6107bd816107aa565b81146107c857600080fd5b50565b6000813590506107da816107b4565b92915050565b6000602082840312156107f6576107f56107a0565b5b6000610804848285016107cb565b91505092915050565b600081519050919050565b600082825260208201905092915050565b60005b8381101561084757808201518184015260208101905061082c565b60008484015250505050565b6000601f19601f8301169050919050565b600061086f8261080d565b6108798185610818565b9350610889818560208601610829565b61089281610853565b840191505092915050565b6108a6816107aa565b82525050565b600073ffffffffffffffffffffffffffffffffffffffff82169050919050565b60006108d7826108ac565b9050919050565b6108e7816108cc565b82525050565b60008115159050919050565b610902816108ed565b82525050565b600060e0820190508181036000830152610922818a610864565b905081810360208301526109368189610864565b9050610945604083018861089d565b61095260608301876108de565b61095f608083018661089d565b61096c60a083018561089d565b61097960c08301846108f9565b98975050505050505050565b6000806040838503121561099c5761099b6107a0565b5b60006109aa858286016107cb565b92505060206109bb858286016107cb565b9150509250929050565b60006020820190506109da60008301846108f9565b92915050565b60006020820190506109f5600083018461089d565b92915050565b600080fd5b600080fd5b7f4e487b7100000000000000000000000000000000000000000000000000000000600052604160045260246000fd5b610a3d82610853565b810181811067ffffffffffffffff82111715610a5c57610a5b610a05565b5b80604052505050565b6000610a6f610796565b9050610a7b8282610a34565b919050565b600067ffffffffffffffff821115610a9b57610a9a610a05565b5b610aa482610853565b9050602081019050919050565b82818337600083830152505050565b6000610ad3610ace84610a80565b610a65565b905082815260208101848484011115610aef57610aee610a00565b5b610afa848285610ab1565b509392505050565b600082601f830112610b1757610b166109fb565b5b8135610b27848260208601610ac0565b91505092915050565b60008060008060808587031215610b4a57610b496107a0565b5b600085013567ffffffffffffffff811115610b6857610b676107a5565b5b610b7487828801610b02565b945050602085013567ffffffffffffffff811115610b9557610b946107a5565b5b610ba187828801610b02565b9350506040610bb2878288016107cb565b9250506060610bc3878288016107cb565b91505092959194509250565b6000819050919050565b6000610bf4610bef610bea846108ac565b610bcf565b6108ac565b9050919050565b6000610c0682610bd9565b9050919050565b6000610c1882610bfb565b9050919050565b610c2881610c0d565b82525050565b6000602082019050610c436000830184610c1f565b92915050565b7f4e487b7100000000000000000000000000000000000000000000000000000000600052602260045260246000fd5b60006002820490506001821680610c9057607f821691505b602082108103610ca357610ca2610c49565b5b50919050565b610cb2816108cc565b8114610cbd57600080fd5b50565b600081519050610ccf81610ca9565b92915050565b600060208284031215610ceb57610cea6107a0565b5b6000610cf984828501610cc0565b91505092915050565b7f596f7520646f206e6f74206f776e2074686973204e4654000000000000000000600082015250565b6000610d38601783610818565b9150610d4382610d02565b602082019050919050565b60006020820190508181036000830152610d6781610d2b565b9050919050565b7f4576656e742069732066756c6c00000000000000000000000000000000000000600082015250565b6000610da4600d83610818565b9150610daf82610d6e565b602082019050919050565b60006020820190508181036000830152610dd381610d97565b9050919050565b7f416c7265616479207265676973746572656420666f722074686973206576656e60008201527f7420776974682074686973204e46540000000000000000000000000000000000602082015250565b6000610e36602f83610818565b9150610e4182610dda565b604082019050919050565b60006020820190508181036000830152610e6581610e29565b9050919050565b7f4e487b7100000000000000000000000000000000000000000000000000000000600052601160045260246000fd5b6000610ea6826107aa565b91507fffffffffffffffffffffffffffffffffffffffffffffffffffffffffffffffff8203610ed857610ed7610e6c565b5b600182019050919050565b7f4f6e6c7920746865206f7267616e697a65722063616e2064656163746976617460008201527f6520746865206576656e74000000000000000000000000000000000000000000602082015250565b6000610f3f602b83610818565b9150610f4a82610ee3565b604082019050919050565b60006020820190508181036000830152610f6e81610f32565b9050919050565b60008190508160005260206000209050919050565b60006020601f8301049050919050565b600082821b905092915050565b600060088302610fd77fffffffffffffffffffffffffffffffffffffffffffffffffffffffffffffffff82610f9a565b610fe18683610f9a565b95508019841693508086168417925050509392505050565b600061101461100f61100a846107aa565b610bcf565b6107aa565b9050919050565b6000819050919050565b61102e83610ff9565b61104261103a8261101b565b848454610fa7565b825550505050565b600090565b61105761104a565b611062818484611025565b505050565b5b818110156110865761107b60008261104f565b600181019050611068565b5050565b601f8211156110cb5761109c81610f75565b6110a584610f8a565b810160208510156110b4578190505b6110c86110c085610f8a565b830182611067565b50505b505050565b600082821c905092915050565b60006110ee600019846008026110d0565b1980831691505092915050565b600061110783836110dd565b9150826002028217905092915050565b6111208261080d565b67ffffffffffffffff81111561113957611138610a05565b5b6111438254610c78565b61114e82828561108a565b600060209050601f831160018114611181576000841561116f578287015190505b61117985826110fb565b8655506111e1565b601f19841661118f86610f75565b60005b828110156111b757848901518255600182019150602085019450602081019050611192565b868310156111d457848901516111d0601f8916826110dd565b8355505b6001600288020188555050505b50505050505056fea2646970667358221220d3181db358b20fb5d21c11c2fa7aa88b938445f066ca29799c16f00a6b6c318a64736f6c63430008180033",
  "linkReferences": {},
  "deployedLinkReferences": {}
}